:020000040800F2
:10000000002000204D0200082302000825020008FD
:1000100000000000000000000000000000000000E0
:10002000000000000000000000000000270200089F
:100030000000000000000000290200082B02000858
:100040009D0200089D0200089D0200089D02000814
:100050009D0200089D0200089D0200089D02000804
:100060009D0200089D0200089D0200089D020008F4
:100070009D0200089D0200089D0200089D020008E4
:100080009D0200089D020008000000009D0200087B
:100090009D0200089D0200089D0200089D020008C4
:1000A0009D0200089D0200089D0200089D020008B4
:1000B0009D020008000000009D02000800000000F2
:1000C00010B5064C2378002B07D1054B002B02D02E
:1000D000044800E000BF0123237010BD040000208D
:1000E00000000000E8020008044B10B5002B03D00C
:1000F0000349044800E000BF10BDC04600000000F6
:1001000008000020E802000800200020110100087B
:100110003A4841693A4A114341613A485521C16020
:1001200039493A4A0A600022394B00243648FF21F7
:10013000816200F051F8FFE700F049F800F054F850
:100140003148214681611A4600F054F800F03FF82A
:1001500000F042F800F048F800F033F82546FF2799
:10016000EE1BE1D001342848FF218162E8E7284BEB
:100170007047284B7047244801218162224821465C
:1001800081611A4600F036F800F026F800F02CF8ED
:1001900000F017F82546FE27EE1BC5D002341A489A
:1001A000FF21816217480169C907BDD1E3E71648FD
:1001B000FF2181621448AA2181611A4600F01AF8D1
:1001C000B2E7104801690907C90FFAD070470D4816
:1001D0000169C907CFD070470A4801698907C90F6B
:1001E0000029C6D0C3D17047064801694907C90F25
:1001F000DDD07047013AFDD17047C0460010024083
:1002000000000600000000480004004855550000AA
:10021000C05C1500E093040010B5FFF779FF0020E3
:1002200010BDFEE7FEE77047704710B500F002F81A
:1002300010BD7047034A1168034B1B785B181360AD
:100240007047C04620000020000000200D48854671
:10025000FFF7EFFF0C480D490D4A002302E0D45888
:10026000C4500433C4188C42F9D30A4A0A4C002300
:1002700001E013600432A242FBD300F011F8FFF753
:10028000CBFFFEE70020002000000020040000203B
:10029000080300080400002024000020FEE70000FE
:1002A00070B500260C4C0D4D641BA410A64209D15C
:1002B000002600F019F80A4C0A4D641BA410A6424F
:1002C00005D170BDB300EB5898470136EEE7B30097
:1002D000EB5898470136F2E70003000800030008D6
:1002E0000403000800030008F8B5C046F8BC08BCC9
:1002F0009E467047F8B5C046F8BC08BC9E4670479D
:04030000E900000808
:04030400C10000082C
:0403080001000000F0
:040000050800024DA0
:00000001FF
