:020000040800F2
:1000000000200020B50200088B0200088D020008C5
:1000100000000000000000000000000000000000E0
:100020000000000000000000000000008F02000837
:100030000000000000000000910200089302000888
:100040000503000805030008050300080503000870
:100050000503000805030008050300080503000860
:100060000503000805030008050300080503000850
:100070000503000805030008050300080503000840
:100080000503000805030008000000000503000840
:100090000503000805030008050300080503000820
:1000A0000503000805030008050300080503000810
:1000B0000503000800000000050300080000000020
:1000C00010B5064C2378002B07D1054B002B02D02E
:1000D000044800E000BF0123237010BD040000208D
:1000E0000000000050030008044B10B5002B03D0A3
:1000F0000349044800E000BF10BDC04600000000F6
:100100000800002050030008002000201101000812
:1001100054484169544A1143416154485521C160D2
:100120005349544A0A6000225148FF2181624F48D6
:100130000169C9075AD04D4801698907C90F06D01E
:100140004A4801694907C90F79D04B4B00E04B4B36
:100150004748012181611A4600F07EF84348016951
:100160000907C90F002900F071F841480321816196
:100170001A4600F071F800F069F83D4807218161E6
:100180001A4600F069F800F061F839480F218161E2
:100190001A4600F061F800F059F835481F218161D6
:1001A0001A4600F059F800F051F831483F218161BA
:1001B0001A4600F051F800F049F82D487F2181617E
:1001C0001A4600F049F800F041F82948FF21816102
:1001D0001A4600F041F800F039F82548FF21816205
:1001E0001A4600F039F800F031F89DE72048032165
:1001F00081611A4600F030F800F028F81C480F2101
:1002000081611A4600F028F800F020F818483F21D4
:1002100081611A4600F020F800F018F81448FF2118
:1002200081611A4600F018F800F010F81048FF211C
:1002300081621A4600F010F800F008F874E70C48E4
:10024000AA2181611A4600F007F86DE707480169A5
:100250000907C90FFAD07047013AFDD170474A61CA
:1002600062E7C0460010024000000600000000489F
:100270000004004855550000C05C1500C027090067
:1002800010B5FFF745FF002010BDFEE7FEE7704701
:10029000704710B500F002F810BD7047034A1168AE
:1002A000034B1B785B1813607047C046200000208A
:1002B000000000200D488546FFF7EFFF0C480D4970
:1002C0000D4A002302E0D458C4500433C4188C42B1
:1002D000F9D30A4A0A4C002301E013600432A24217
:1002E000FBD300F011F8FFF7CBFFFEE70020002062
:1002F000000000200400002070030008040000201B
:1003000024000020FEE7000070B500260C4C0D4DC7
:10031000641BA410A64209D1002600F019F80A4C6B
:100320000A4D641BA410A64205D170BDB300EB5862
:1003300098470136EEE7B300EB5898470136F2E7ED
:1003400068030008680300086C03000868030008DD
:10035000F8B5C046F8BC08BC9E467047F8B5C04624
:08036000F8BC08BC9E46704782
:04036800E9000008A0
:04036C00C1000008C4
:040370000100000088
:04000005080002B538
:00000001FF
